:020000040800F2
:10000000E014002001010008E54000087B300008F2
:10001000494000080D0F0008854A00080000000054
:10002000000000000000000000000000AF430008D6
:100030005F0F000800000000AD430008B143000856
:100040001B0100081B0100081B0100081B01000820
:100050001B0100081B0100081B0100081B01000810
:100060001B0100081B0100081B010008110F0008FC
:100070001B0100081B0100081B0100081D0F0008E0
:10008000290F00081B010008B50900081B01000822
:100090001B0100081B0100081B0100081B010008D0
:1000A0001B0100081B0100081B0100081B010008C0
:1000B0001B0100081B0100081B0100087D3000081F
:1000C0001B0100081B0100081B0100081B010008A0
:1000D0001B010008594A00081B0100081B01000809
:1000E0001B0100081B0100081B010008DFF80CD0F1
:1000F00000F02CFC0048004795590008E01400204F
:100100000648804706480047FEE7FEE7FEE7FEE7B1
:10011000FEE7FEE7FEE7FEE7FEE7FEE72D44000808
:10012000ED000008202A04DB203A21FA02F0002129
:10013000704721FA02F3D040C2F1200291400843F7
:100140001946704740EA01039B0703D009E008C93C
:10015000121F08C0042AFAD203E011F8013B00F88C
:10016000013B521EF9D27047D2B201E000F8012BD8
:10017000491EFBD270470022F6E710B513460A4627
:1001800004461946FFF7F0FF204610BD421E12F844
:10019000013F002BFBD111F8013B02F8013B002B82
:1001A000F9D17047421C10F8011B0029FBD1801ABD
:1001B0007047F0B480EA0102D40F4200B2EB410F65
:1001C00002D20246084611464A0042D0C30DDDB2B3
:1001D000C1F3C752AD1A202D35DAC1F3160141F42F
:1001E000000204B15242C5F1200602FA06F12A418A
:1001F0001044B3EBD05F23D0C4B1012DA0EBC350AA
:1002000009DCF0BC4FF0004202EAC352DBB200F559
:10021000000000F058B9400000F1807000EBC350BE
:10022000A0F1807040EAD170490009E0490841EA34
:10023000C071A0EBC35000F50000400800EBC350B4
:10024000F0BC00F037B96142012202EB4101001B12
:10025000F6E7F0BC704781F00041AAE780F000406B
:10026000A7E780EA010210B502F00043400022D067
:100270004A001FD0010E01EB1261C0F35600C2F319
:10028000560240F4000042F40002A0FB02200004E9
:100290007F39140400D0401C50EA124001D44000C1
:1002A000491EC2B20C0604EBD010401C4008802A44
:1002B00002D003E0002010BD20F00100002900DA88
:1002C0000020184310BD30B480EA010202F000455E
:1002D00030F0004221F0004013D090B1C30DD40D96
:1002E000C2F31601C0F31600E41A41F4000140F411
:1002F00000027D34914201D3641C00E04900002CCF
:1003000002DA30BC002070474FF400000023914215
:1003100001D3891A034340084FEA4101F7D151B193
:10032000914202D14FF0004105E002D24FF00101AD
:1003300001E06FF0010103EBC450284430BC00F031
:10034000B9B870B521F0004303430CD0C1F30A558E
:100350000024D5EB040564EB0403D617AD1AB341B2
:1003600002DB0020014670BD201841EB025170BD38
:10037000C10F80EAE0700844CA079623002100F00C
:10038000A2B896230022114600F09DB80EB540F2A7
:10039000334102910021CDE900110A460B4600F0DD
:1003A000CFF803B000BD20F00040C10DC0F316002F
:1003B00040F400007F2901DA00207047962903DC11
:1003C000C1F19601C8407047963988407047C1F323
:1003D0000A5210B5C1F3130140F2FF3341F480110A
:1003E0009A4201DA002010BD40F233439A42A2F251
:1003F000334203DC5242FFF795FE10BD904010BD22
:1004000000F0004230F000400AD0C10D01F56071EB
:10041000C0F3160042EA0151C20840071143704779
:1004200000200146704730B50B46014600202022CF
:10043000012409E021FA02F59D4205D303FA02F5F1
:10044000491B04FA02F52844151EA2F10102F1DC51
:1004500030BD2DE9F05F0546002092469B46884658
:100460000646814640241BE0284641464746224630
:10047000FFF758FE53465A46C01A914110D3114611
:100480001846224600F074FA2D1A67EB01084F4611
:1004900022460120002100F06BFA17EB00094E41C3
:1004A000201EA4F10104DFDC484631462A464346BB
:1004B000BDE8F09F0029A8BF7047401C490008BF55
:1004C00020F00100704710B4B0FA80FC00FA0CF084
:1004D00050EA010404BF10BC704749B1CCF12004BC
:1004E00021FA04F411FA0CF118BF01212143084349
:1004F000A3EB0C01CB1D4FEA00614FEA102042BF75
:10050000002010BC704700EBC35010440029A4BF6A
:1005100010BC7047401C490008BF20F0010010BC0F
:10052000704710B5141E73F1000408DA401C41F145
:10053000000192185B411A4301D120F0010010BD67
:100540002DE9F04D92469B4611B1B1FA81F202E0DD
:10055000B0FA80F22032904600F00AFA04460F46C4
:1005600040EA0A0041EA0B0153465A46084313D0B9
:10057000114653EA010019D0C8F140025046FFF776
:10058000D1FD05460E4650465946424600F0F0F968
:10059000084305D0012004E020463946BDE8F08D2F
:1005A0000020054346EAE0762C4337430A9863056A
:1005B000E40AA0EB08000022FD0A44EA47540A308E
:1005C00002D500200146E9E7010510196941DDE97E
:1005D000084500196941BDE8F04DA2E72DE9FE4F3D
:1005E000804681EA0300C00F0C46009021F00041D4
:1005F00023F00045B8EB0200A94105D24046214650
:1006000090461C460B46024623F00040104347D05C
:10061000270DC7F30A00C3F30A510290401A019054
:1006200040286BDAC3F3130040F4801B0098924615
:1006300020B10023D2EB030A63EB0B0B0198594660
:10064000C0F14002504600F093F906460D46504670
:100650005946019A00F09BF910EB08006141002413
:1006600087EA115284EAE7731A4340D0009A62B3D2
:10067000019A012A4FEA075215DC001B61EB0201C7
:100680004FF0004202EA0752CDE90042001C41F55A
:10069000801132462B46FFF753FF03B0BDE8F08FC1
:1006A00040462146F9E7001B61EB0201001C41F5C1
:1006B000801300185B412018A2F5001747EB0301D7
:1006C00040EAD570B6196D4111E06D084FEA360663
:1006D00045EAC0754FEA0752001B61EB0201001C9E
:1006E00041F5801149084FEA300000195141324666
:1006F0002B4603B0BDE8F04FFFF713BF009801226F
:1007000040000023D0EB020263EBE0730098214627
:100710004FEAE074B8EB000061EB0401E9E783F015
:1007200000435BE781F0004158E72DE9FE4F81EA85
:10073000030404F0004421F0004100944FF0000B4A
:1007400023F0004350EA01045ED052EA03045BD078
:10075000C3F30A54C1F30A552C44A4F2F3340194B0
:10076000A0FB0254C1F3130141F48011C3F313033E
:1007700043F4801301FB024400FB034E840A970AF2
:1007800044EA815447EA8357A4FB076802958D0A1F
:1007900005FB07854FEA932C04FB0C542705029DAB
:1007A0004FEA065847EA1637B5EB08056EEB070C1B
:1007B000870E920E47EA811742EA8312A7FB0201D5
:1007C000B6EB0B0164EB00042B0D43EA0C335E180F
:1007D00044EB1C50DA465146E7FB0201C5F3130413
:1007E0004FEA0B3343EA14534FEA0432019C43EAC5
:1007F0000603A4F10C040294009CCDE900B4FFF7B9
:100800009FFE03B0BDE8F08F00200146F9E72DE917
:10081000F04D81EA030404F0004B21F0004514463A
:100820004FF0000A23F0004150EA050220D054EABC
:1008300001021DD0C5F30A570246C5F31303C1F3E5
:100840001300C1F30A5640F4801543F48013A7EB5C
:100850000608101BD64608F2FD3873EB050002D3DC
:1008600008F1010801E092185B41B8F1000F03DACA
:1008700000200146BDE8F08D00204FF480110646AF
:1008800084460EE0171B73EB050705D3121B63EBC1
:10089000050306434CEA010C49084FEA3000921860
:1008A0005B4150EA0107EDD152EA030012D082EA1F
:1008B000040083EA0501084305D0101BAB4106D2B2
:1008C0000122002306E000224FF0004302E06FF017
:1008D000010253101AEB06004CEB085110EB0A0012
:1008E00041EB0B01BDE8F04DFFF71BBEC1F30A520F
:1008F000C1F3130140F2FF3341F480119A4202DA4E
:1009000000200146704740F233439A42A2F233423C
:1009100002DC5242FFF706BC00F02AB830B5041ED4
:1009200071F1000404DB4FF00044404264EB01012C
:10093000141E73F1000405DB1C464FF000435242C5
:1009400063EB0403994208BF904230BD064C074D4B
:1009500006E0E06840F0010394E80700984710348F
:10096000AC42F6D3FFF7C6FB70670008906700083B
:10097000202A04DB203A00FA02F10020704791405F
:10098000C2F1200320FA03F3194390407047202A54
:1009900006DBCB17203A41FA02F043EAE07306E0A7
:1009A00041FA02F3D040C2F12002914008431946B7
:1009B00070470000014800F058BB0000880000208C
:1009C00070B5044600688168C943C90717D18168BA
:1009D00021F00101816000F09BFF05460AE000BFA5
:1009E00000F096FF401B022804D920688068C043AD
:1009F000C00706D020688068C043C007F0D0002040
:100A000070BDA06A40F01000A062E06A40F00100F2
:100A1000E062012070BD10B50146406A826A12F0A2
:100A2000500F05D0006A026BBDE810400846104721
:100A3000816A41F40071816201688968C1F34241B1
:100A400007290CD1017B51B9816A21F4807181623F
:100A5000816AC90403D4816A41F00101816200F016
:100A600001FB10BD10B5406A816A41F0400181620E
:100A7000C16A41F00401C16200F0F6FA10BD10B580
:100A8000406A00F0F0FA10BDF8B500260446009662
:100A900000688168C943C9072DD0816841F0010110
:100AA0008160164816490068B0FBF1F000E0401E76
:100AB00000900028FBD100F02BFF054616E000BF98
:100AC00000F026FF401B022810D920688068C04330
:100AD000C0070BD0A06A40F01000A062E06A40F0AE
:100AE0000100E06284F824600120F8BD206880687D
:100AF000C043C007E4D10020F8BD00000C00002076
:100B000040420F0010B5807B05280CD2DFE800F0D2
:100B10000B030E050C0008A009E00BA003F0B4FFC6
:100B20000C490120087010BD0BA000E00FA0BDE82B
:100B3000104003F0A9BF000030206C6F6E6720707A
:100B400072657373210D0A003020636C69636B2139
:100B50000D0A0000450000203020646F75626C654E
:100B600020636C69636B210D0A00000030206C6FFC
:100B70006E67207072657373207570210D0A000016
:100B800010B5807B05280CD2DFE800F00B030E05C2
:100B90000C0008A009E00BA003F076FF0C4902202E
:100BA000087010BD0BA000E00FA0BDE8104003F0DE
:100BB0006BBF000031206C6F6E67207072657373BD
:100BC000210D0A003120636C69636B210D0A00005E
:100BD000450000203120646F75626C6520636C698C
:100BE000636B210D0A00000031206C6F6E6720706E
:100BF00072657373207570210D0A0000807B0528D3
:100C000011D2DFE800F010030D050B0006A008E08C
:100C100009480321017009A003F036BF0BA000E0D2
:100C20000FA003F031BF704732206C6F6E672070E9
:100C300072657373210D0A00450000203220636C39
:100C400069636B2125640D0A000000003220646F87
:100C500075626C6520636C69636B210D0A0000008E
:100C600032206C6F6E67207072657373207570210F
:100C70000D0A000070B50446807B052814D2DFE819
:100C800000F0130310050D0061A00BE0644D65A09A
:100C9000297803F0F9FE0420287005E065A003F030
:100CA000F3FE69A003F0F0FEE078404200EB800024
:100CB00004EB800090F8361001297DD190F84A109D
:100CC000012931D1817B65A003F0DEFEE07840424E
:100CD00000EB800004EB800090F8221064A003F089
:100CE000D3FEE078404200EB800004EB800090F8F7
:100CF000361064A003F0C8FEE078404200EB8000AC
:100D000004EB800090F84A1063A003F0BDFE67A0DA
:100D100003F0BAFEE078404200EB800004EB800074
:100D200090F83600012871D1E078404200EB800055
:100D300004EB800090F84A10032931D1817B47A051
:100D400003F0A2FEE078404200EB800004EB80005C
:100D500090F8221046A003F097FEE078404200EBA6
:100D6000800004EB800090F8361046A003F08CFE63
:100D7000E078404200EB800004EB800090F84A10DD
:100D800045A003F081FE4FA003F07EFEE0784042D4
:100D900000EB800004EB800090F83600012835D18C
:100DA000E078404200EB800004EB800090F84A10AD
:100DB00004292BD1817B00E028E028A003F064FE09
:100DC000E078404200EB800004EB800090F82210B5
:100DD00027A003F059FEE078404200EB800004EBCE
:100DE000800090F8361027A003F04EFEE0784042D5
:100DF00000EB800004EB800090F84A1026A003F07E
:100E000043FEBDE8704037A003F03EBE70BD000059
:100E100033206C6F6E67207072657373210D0A004A
:100E2000450000203320636C69636B2125640D0A43
:100E3000000000003320646F75626C6520636C698C
:100E4000636B210D0A00000033206C6F6E67207009
:100E500072657373207570210D0A000062746E3024
:100E6000207374617465203A2025640D0A00000027
:100E700062746E31207374617465203A2025640DAC
:100E80000A00000062746E32207374617465203A47
:100E90002025640D0A00000062746E3320737461B3
:100EA0007465203A2025640D0A00000062746E32D9
:100EB00020262033206C6F6E672070726573730D6F
:100EC0000A00000062746E32206C6F6E67207072D0
:100ED00065737320262062746E3320636C69636BC4
:100EE0000D0A000062746E32206C6F6E67207072A3
:100EF00065737320262062746E3320646F75626C94
:100F00006520636C69636B0D0A000000FEE700005A
:100F1000014800F0F3BA0000B8000020014800F0DA
:100F2000EDBA000024020020014800F0E7BA0000FA
:100F30005001002030B590F840500124AC40C56B02
:100F40006C60046863604368102B036803D0996089
:100F50000068C26030BD9A600068C16030BD7047F3
:100F600072B6FEE770470000F8B50024009490F8D0
:100F700024202546012A12D0012280F824204A6824
:100F80001F23072A0DD20668776B521E02EB8202DE
:100F900093409F430B6893401F43776319E00220FF
:100FA000F8BD06680D2A0AD2376BD21F02EB820207
:100FB00093409F430B6893401F43376309E0F76AF0
:100FC0000D3A02EB820293409F430B6893401F430C
:100FD000F7620A68072306680A2A0AD3F7680A3AFA
:100FE00002EB420293409F438B6893401F43F7609C
:100FF00008E0376902EB420293409F438B689340BD
:101000001F4337610A68102A01D0112A20D1124BE0
:1010100002689A4217D193681B0219D4936843F46B
:10102000000393600968102912D10C490C4A096821
:10103000B1FBF2F101EB8101490000E0491E009192
:101040000029FBD104E0816A41F020018162012482
:1010500080F824502046F8BD002401400C000020F8
:1010600040420F0070477047704770B504460068F3
:1010700006684568A90625D5B10723D5A16AC90622
:1010800003D4A16A41F40071A1628168C1F34241B5
:10109000072910D1217B71B9416821F020014160FD
:1010A000A06A20F48070A062A06AC00403D4A06A81
:1010B00040F00100A0622046FFF7D4FF21686FF0E6
:1010C0001200086028062ED570072CD5A06AC0062D
:1010D00003D4A06A40F40050A06220688168C1F384
:1010E0000231072909D04168490515D48168C1F347
:1010F0004241072910D1217B71B9416821F080015B
:101100004160A06A20F48050A062A06AC00503D4A8
:10111000A06A40F00100A0622046FFF723FF21688B
:101120006FF00C00086068060CD5F0070AD0A06AC2
:1011300040F48030A062204600F094F821686FF0FF
:101140000100086070BD00002DE9F0414FF000077C
:1011500004003D467ED0A06A002628B9E66284F8E5
:101160002460204600F080F82046FFF729FCA16AA1
:10117000C90600D420B1A06A40F01000A06269E066
:10118000A16A21F4885141F00201A1626268E1691B
:10119000237B0A4347EA43010A43A1684FF480775F
:1011A000B94209D0012907D05FF0000194F814C0BA
:1011B000BCF1010F02D00AE03946F7E7F3B1A36AA8
:1011C00043F02003A362E36A43F00103E362236870
:1011D000D3F804C02CF4694C4CEA010CC3F804C0E9
:1011E00021688B68DFF870C003EA0C0313438B603F
:1011F000A168B9420BD0012909D00CE0DFF85CC02E
:10120000A3690CEB43330B4343F40061DFE7218A0E
:101210000D05A5F580152168CB6A23F470032B43D7
:10122000CB62216889680E4B1940914208D1E66271
:10123000A16A21F0020141F00101A162BDE8F08143
:10124000A06A20F0020040F01000A062E06A40F0C6
:101250000100E0620120F1E7FDF7E1FF00E0FFFFA0
:10126000FE0E1FFF7047000070B586B000260546D1
:10127000009601960296039600681E49884237D16F
:101280001D49886940F400708861886900F4007025
:101290000490886940F0040088618869694600F01C
:1012A000040004903C20009003200190134800F0BB
:1012B00035FA144C1248C4E900068020C4E90260E3
:1012C00080002061800060612020A061C001E06199
:1012D000204600F0BDF908B1FFF742FE2C62002263
:1012E00011461220656200F067FF122000F056FFE1
:1012F00006B070BD0024014000100240000801400B
:1013000008000240B80000202DE9F0478946044655
:101310003B4900683B4F0E1D9046884201D0B842C1
:1013200007D1306810F4702F03D001252846BDE89E
:10133000F08794F8240001280CD0012084F82400C0
:101340002046FFF7A1FB05004FF0000004D084F811
:101350002400EBE70220EAE7A16A40F6016291432C
:1013600041F48071A1622168B94218D1326812F447
:10137000702F14D0A16A41F48011A162316849052F
:1013800005D5A16A21F4005141F48051A162A16AFE
:10139000C9040AD5E16A21F00601E16206E0A26A09
:1013A00022F48012A2624968E9E7E06284F824002E
:1013B000216A15488862216A1448C862216A144863
:1013C000086321686FF0020008602068816841F4BA
:1013D00080718160216843464A464C31206A00F0A2
:1013E00065F920688168C1F342410729816803D00B
:1013F00041F48011816099E741F4A001FAE700000F
:101400000024014000280140170A00087F0A000854
:10141000650A000810B590F821100022022905D0B5
:101420000421816380F82020012010BD01680B6831
:1014300023F00E030B6001680B6823F001030B60BF
:1014400090F84030C46B012101FA03F3636080F827
:10145000211080F82020104610BD000010B590F833
:1014600021100024022903D00421816301243DE0DE
:1014700001680A6822F00E020A6001680A6822F018
:1014800001020A601A4A0168914201D1012121E05A
:10149000174A1432914201D110211BE0144A28321C
:1014A000914201D1891515E0114A3C32914201D196
:1014B00089140FE00E4A5032914202D14FF480312C
:1014C00008E00B4A6432914202D14FF4801101E0EE
:1014D0004FF08071064A083A5160012180F82110CE
:1014E000002180F82010416B01B18847204610BDD3
:1014F0000800024090F82100704700002DE9F05FDD
:10150000C16B0C6801680B68D0F840C0042202FA75
:101510000CF2494DDFF824A1494E4A4FDFF828B1BB
:10152000DFF828E122422CD05A072AD50A68920611
:1015300003D40A6822F004020A600168A94201D1BA
:10154000042219E0514501D1402215E0B14202D1F7
:101550004FF4806210E0B94202D14FF480420BE0B8
:10156000594502D14FF4802206E0714502D14FF473
:10157000800201E04FF080622F4908394A60C16A59
:101580003BE04FF0020808FA0CF818EA040F4FF09D
:1015900000094FF0010235D05FEA837832D50B683D
:1015A0009B0605D40B6823F00A030B6080F821200A
:1015B0000168A94201D1022219E0514501D120223E
:1015C00015E0B14202D14FF4007210E0B94202D1ED
:1015D0004FF400520BE0594502D14FF4003206E0BF
:1015E000714502D14FF4001201E04FF00072124930
:1015F00008394A6080F82090816A00291AD0BDE835
:10160000F05F0847082505FA0CF5254212D01B07A4
:1016100010D50B6823F00E030B6090F84010C36BDD
:1016200002FA01F15960826380F8212080F820904D
:10163000016BE2E7BDE8F09F080002401C00024099
:101640003000024044000240580002406C0002405A
:1016500030B528B308C8134914221944B1FBF2F17C
:101660008900C16310498163022141771A6843F6FA
:10167000F0718A43D0E900142143D0E902452C439C
:10168000214304692143446921438469214311436F
:10169000196000214163012242770177084630BD7D
:1016A000012030BDF8FFFDBF0000024070B50446C8
:1016B00090F82000002501280CD0012084F820009B
:1016C00094F821600020012E06D084F82000022525
:1016D000284670BD022070BD022684F82160A063F8
:1016E0002068066826F0010606602046FFF722FC07
:1016F000E06A00282068016802D041F00E0106E08F
:1017000021F0040101602068016841F00A010160D4
:101710002068016841F001010160D9E72DE9F84F27
:10172000DFF8B8910024A9F1040B23460F2709F133
:10173000040AABF1040EC9E00125A5402A40AA42E3
:101740007DD1674ED1F804C0ACEB0608B44532D069
:1017500014DCBCF1030F3AD009DCBCF1000F2AD035
:10176000BCF1010F1CD0BCF1020F31D11DE0BCF166
:10177000110F17D0BCF1120F2AD119E0B8F5881F4C
:1017800019D006DCB8F5803F15D0B8F5801F1FD101
:1017900011E0B8F5001F0ED0B8F5041F18D10AE00B
:1017A000CB6815E0CB681B1D12E0CB6808330FE057
:1017B000CB680C330CE08B682BB1012B4FF0080386
:1017C00003D0456104E0042302E0056100E000234A
:1017D000FF2A01D8064601E000F104064FEA84051D
:1017E00001D9A5F12005D6F8008007FA05FC28EA02
:1017F0000C0803FA05F548EA0508C6F800804D68AC
:10180000ED0062D5374DAE6946F00106AE61AD69B7
:1018100024F0030605F001050095334D06EB050C99
:10182000DCF80850A607360F07FA06F825EA08057F
:10183000DFF8B880404503D14FF0000817E044E0DE
:10184000DFF8AC80404502D14FF001080FE0DFF82F
:10185000A480404502D14FF0020808E0DFF89880EC
:10186000404502D14FF0030801E04FF0040808FAA8
:1018700006F848EA0508CCF808804D68D9F80060F9
:10188000ED024D4601D5164300E096432E604D68AB
:10189000DAF80060AD02554601D5164300E09643E4
:1018A0002E604D68DBF80060AD035D4601D5164340
:1018B00000E096432E604D68DEF80060ED0375464B
:1018C00001D5164300E096432E60641C0D682A463D
:1018D000E5407FF431AFBDE8F88F00000804014017
:1018E00000001110001002400000014000080140FB
:1018F000000C0140001001400014014080680840C5
:1019000000D0012070470AB1016170470904FBE76C
:101910000148806870470000000000207047704751
:101920002DE9F047026800215368C66A90F83E40EE
:1019300090F83D50102C12D0402C10D0046C002C8C
:101940007DD05469E443A6077AD4DE43B60577D444
:10195000036C03B19169BDE8F04702F081B8976963
:1019600051694FF42A0CC9435FEAC1784FF02A4904
:1019700004D066452AD04E4528D010E0DE43B60597
:101980000DD4C16A614501D1012103E0C16A494515
:1019900001D10821C162BDE8F04701F073BF0E0715
:1019A00016D4DE43B60513D4416CC9B21161416B44
:1019B00009B1896A29B9816B002907D0896A002990
:1019C00004D00068416841F400614160BDE8F087DF
:1019D0008E0706D4DE43B60503D4BDE8F04701F018
:1019E000A5BEFE43526876074FEA02521DD4002A74
:1019F000ECDB0A0608D4DA43520505D4490705D5BD
:101A0000BDE8F04701F036BE4907DFD4D943890568
:101A1000DCD4212D05D0402CD8D1BDE8F04701F011
:101A200077BFBDE8F04701F0E3BD002ACEDB4A06F0
:101A30000BD4DA43520508D4490708D501E00DE07C
:101A40000EE0BDE8F04701F059BD4907BED4D943C7
:101A50008905BBD4BDE8F04701F0E3BC916970E7AC
:101A6000E10606D4D943890503D4BDE8F04702F066
:101A70001BB82821212D27D0292D25D0650655D426
:101A8000DD436D0552D4640752D590F83D30448D46
:101A9000002C9BD01269446A2270426A521C426236
:101AA000428D521E4285428D002A8FD12A2B8DD124
:101AB0000268536823F4806353602222026380F833
:101AC0003D1000F011FB81E7250623D4DD436D05B1
:101AD00020D4640720D590F83D30448D002CF2D0FE
:101AE000446A24781461426A521C4262428D521E3A
:101AF0004285428D002AE6D1292BE4D10268536841
:101B000023F4806353602122026380F83D1000F0CB
:101B1000ECFA5BE76107D6D4D9438905D3D4418D6C
:101B20000029D0D0416A097811610AE06107CAD45E
:101B3000D9438905C7D4418D0029C4D01169426AAF
:101B40001170416A491C4162418D491E41853DE742
:101B50007047000070B5040025D094F83D000025C2
:101B600020B984F83C50204600F064FA242084F820
:101B70003D002068016821F00101016020680168D2
:101B800041F4004101602068016821F400410160D6
:101B900000F050FC4D4A6168914201D84C4900E088
:101BA0004C49884201D2012070BD4B492368B0FBEB
:101BB000F1F15E6826F03F060E435E606368934273
:101BC00006D94FF4967359434FF47A73B1FBF3F18E
:101BD0002368491C1E6A26F03F063143196261687A
:101BE000914210D84900401EB0FBF1F2521CC2F3E2
:101BF0000B02042A01D2042022E0B0FBF1F0401CC9
:101C0000C0F30B001CE0A268F2B301EBC10303EBCD
:101C10000116431EB3FBF6F35B1C43F480431B0524
:101C200049D092B301EBC10202EB0111401EB0FB9F
:101C3000F1F0401CC0F30B0040F4804040F4004041
:101C40002168CA694CF6FF739A431043C861D4E90E
:101C5000071001432068026822F0C00211430160AE
:101C6000D4E9030101432068826848F2FF339A43B4
:101C700011438160D4E9050108432168CA6822F054
:101C8000FF021043C86001E00EE016E02068016822
:101C900041F0010101602564202084F83D002563A6
:101CA00084F83E50002070BD01EB4106431EB3FB9B
:101CB000F6F35B1CB3E70120C2E701EB4101401ED4
:101CC000B0FBF1F0401CC0F30B00B7E7A0860100A9
:101CD00080841E0000093D0040420F00704770479D
:101CE0001CB50948417800290CD0084A00788021A9
:101CF00002EBC010CDE90001012340227821044805
:101D000000F0D0F81CBD00005C000020DC0A0020C0
:101D1000FC000020F8B500250446009590F83D0031
:101D2000202828D14C4846F2A8160068B0FBF6F0EF
:101D300000EBC00606EB0010202600900098401E25
:101D4000009010D020688069C0438007F6D594F8D1
:101D50003C0001280FD0012084F83C00206807686F
:101D6000FF070AD00DE044F8305F6673A573206961
:101D700040F0200020610220F8BD076847F001070D
:101D800007602068076827F400670760212084F84F
:101D90003D00102084F83E00256462626385608DFA
:101DA00020852E48E0626164208DE8B3606BF0B15D
:101DB0002B498162616B2B480863606BC562606B65
:101DC00045632268238D1032616A606BFFF76EFCF9
:101DD000B0B184F83D6084F83E5054F8400F40F0B4
:101DE000100000BF44F8040901202570F8BD84F8F4
:101DF0003D6084F83E5054F8400F40F08000F1E719
:101E000084F83C502068416841F44071416020688A
:101E1000416841F4006141602068016841F48061DB
:101E200001602068016800E003E041F48071016016
:101E300010E02068016841F4806101602068016859
:101E400041F48071016084F83C502068416841F49D
:101E5000E06141600020F8BD0C0000200000FFFFA1
:101E60007B31000845310008704700000A480178BE
:101E700007290DD04278002A0DD0491CC9B2017043
:101E80000648042300EB810278210548FFF742BF92
:101E900000214170017070475C000020BC060020EA
:101EA000FC0000202DE9FC5F0025984691468A46FB
:101EB0000446DDF830B00095FFF72AFD074694F898
:101EC0003D00202828D1574846F2A8112026006856
:101ED000B0FBF1F000EBC00101EB001000900098A6
:101EE000401E009010D020688069C0438007F6D55E
:101EF00094F83C0001280FD0012084F83C002068B1
:101F00000168C9070BD00EE044F8305F6673A57313
:101F1000206940F0200020610220BDE8FC9F01689C
:101F200041F0010101602068016821F40061016055
:101F3000212084F83D00402084F83E002564C4F848
:101F400024B00D986085608D20853748E062C4F824
:101F500044A0C4F84890C4F84C802565208DE8B3AF
:101F6000606BF0B131498162616B31480863606B2D
:101F7000C562606B45632268238D1032616A606BB5
:101F8000FFF794FBB0B184F83D6084F83E5054F8FC
:101F9000400F40F0100000BF44F8040925700120F4
:101FA000BBE784F83D6084F83E5054F8400F40F0A1
:101FB0008000F1E72320CDE9000743464A46514619
:101FC000204601F0F9FC98B1606BFFF747FA606BAF
:101FD00085622068016821F4806100E019E00160F9
:101FE000258565852068016821F001010160D6E73B
:101FF000206841698169009184F83C50416841F44E
:10200000807141602068416841F4006141600020B6
:1020100083E784F83D6084F83E5054F8400F40F068
:102020004000B9E70C0000200000FFFF7B310008F2
:102030004531000870B586B000250646009501952B
:10204000029503950068224988423FD1214CA0693E
:1020500040F00800A061A069694600F00800049003
:102060004FF44070009012200190032003901A4812
:10207000FFF754FB1948416841F0E06141F002016B
:102080004160E06940F40010E061E069154C00F443
:1020900000100490124820601020C4E9010580203F
:1020A000C4E9030580016561C4E906502046FFF7D5
:1020B000CFFA08B1FEF754FF7463002211461F20C7
:1020C000666200F079F81F2000F068F806B070BD75
:1020D0000054004000100240000C0140000001408C
:1020E0006C00024050010020704770470248816830
:1020F000027811448160704700000020074810B545
:10210000016841F010010160032000F075F8002023
:1021100000F006F800F024F8002010BD0020024076
:1021200070B50D4D04464FF47A712878B1FBF0F08C
:102130000A490968B1FBF0F000F052FB48B9102CD5
:1021400007D200222146501E00F036F800206C60B5
:1021500070BD012070BD0000000000200C000020B8
:102160000C4808B5816941F001018161816901F084
:1021700001010091C16941F08051C161C06900F065
:10218000805000900448416821F0E06141F0007106
:10219000416008BD0010024000000140002809DB3A
:1021A00000F01F02012191404009800000F1E02071
:1021B000C0F8001170470000F0B40E4B1B680C46CD
:1021C000C3F30223C3F10705042D00D90425191D0B
:1021D000072901D2002300E0DB1E012606FA05F1E3
:1021E000491E214099409E40761E16403143F0BC66
:1021F00002F072BC0CED00E0064900F0070208682E
:102200004FF6FF03184040EA0220034A10430860DB
:10221000704700000CED00E00000FA052DE9F843DE
:1022200005460078354CC00754D0E0690026C00050
:1022300008D4E06940F08050E061E069012600F0D8
:10224000805000902E480168C90512D4016880466C
:1022500041F480710160FFF75BFB074605E000BFBA
:10226000FFF756FBC01B642823D8D8F80000C00530
:10227000F6D5206A10F4407021D0A98801F440718D
:1022800081421CD0206A1F49012220F440700A605C
:1022900000220A602062C00711D0FFF739FB074611
:1022A00041F2883808E000BFFFF732FBC11B41450F
:1022B00002D90320BDE8F883206A8007F4D5206A9C
:1022C000696820F44070084320621EB1E06920F084
:1022D0008050E0612878800705D56068A96820F4FF
:1022E0004040084360602878C00605D56068E9680A
:1022F00020F48000084360600020DBE7001002400B
:1023000000700040400442422DE9F0470F460500AE
:1023100061D0434E306800F00700B84209D23068FF
:1023200020F0070038433060306800F00700B84202
:1023300051D128683B4C810712D5400703D560680E
:1023400040F4E06060602878000703D5606840F4DE
:10235000605060606068A96820F0F0000843606029
:102360002878C00728D06868012810D02168022882
:1023700010D0890700292EDA616821F0030101439A
:102380006160FFF7C5FA804641F288390DE02168A7
:102390008903EFE78901EDE7FFF7BAFAA0EB08013F
:1023A000494502D90320BDE8F0876068696800F0FC
:1023B0000C00B0EB810FEFD1306800F00700B8429D
:1023C0000BD9306820F0070038433060306800F0E7
:1023D0000700B84201D00120E5E72878400705D57D
:1023E0006068E96820F4E0600843606028780007CE
:1023F00006D56068296920F4605040EAC100606039
:1024000000F038F86168084AC1F30311515CC84014
:102410000649086006480068FFF782FE0020C2E710
:102420000020024000100240F25C00080C00002076
:10243000040000200448054900684968044AC1F3C3
:102440000221515CC84070470C000020001002407F
:10245000025D00080448054900684968044AC1F360
:10246000C221515CC84070470C000020001002409F
:10247000025D00080E4A51680E4801F00C03042B5F
:1024800011D0082B0FD10C48C1F38343C903C05CA2
:102490000AD55168084AC1F34041921E515C054A71
:1024A0005043B0FBF1F070470449484370470000C7
:1024B0000010024000127A00E25C000800093D00B2
:1024C0002DE9F84F040070D02078C04DC00749D0E6
:1024D0006868C0F38100012807D06868C0F38100F4
:1024E000022809D16868C00306D52868800339D559
:1024F00060680028E7D035E06068B0F5803F0BD019
:1025000010B1B0F5A02F11D0286820F480302860D9
:10251000286820F4802002E0286840F48030286099
:10252000606890B1FFF7F4F906460AE0286840F4C5
:1025300080202860F0E700BFFFF7EAF9801B6428DD
:1025400073D828688003F7D50CE0FFF7E1F9064659
:1025500005E000BFFFF7DCF9801B6428F0D828688D
:102560008003F7D420789A4E80074FF001094FF08E
:10257000000839D5686810F00C0F07D06868C0F300
:102580008100022809D16868C00306D42868800742
:1025900014D52069012808D110E02069B0B1C6F82F
:1025A0000090FFF7B5F9074605E00AE1FFF7B0F93B
:1025B000C01B0228C4D828688007F7D5286861693D
:1025C00020F0F80040EAC10028600DE0C6F8008065
:1025D000FFF79EF9074604E0FFF79AF9C01B0228AF
:1025E00023D828688007F7D4207800072CD57948AD
:1025F000A169D9B1C0F80090FFF78AF9074604E055
:10260000FFF786F9C01B02280FD8686A8007F7D544
:1026100071484FF4FA510068B0FBF1F0009000BF30
:102620000098411E0091FAD20EE080E0C0F80080D0
:10263000FFF76EF9074604E0FFF76AF9C01B0228AE
:1026400075D8686A8007F7D42078400760D5E869B4
:102650000027C00008D4E86940F08050E861E869CC
:10266000012700F0805000905C480168C90513D430
:102670000168834641F480710160FFF749F98246A1
:1026800006E000BFFFF744F9A0EB0A0064284ED82B
:10269000DBF80000C005F5D5E06801280AD008B1D4
:1026A000052813D0286A20F001002862286A20F04B
:1026B000040002E0286A40F001002862E06841F26C
:1026C000883B98B1FFF724F982460BE0286A40F076
:1026D00004002862EEE700BFFFF71AF9A0EB0A0139
:1026E00059455AD8286A8007F6D50CE0FFF710F94B
:1026F000824605E0FFF70CF9A0EB0A0159454CD8DA
:10270000286A8007F6D41FB1E86920F08050E8619C
:10271000E06988B36968C1F38101022944D00228C5
:10272000C6F8608004D0FFF7F3F8044638E034E0E0
:10273000FFF7EEF8074604E0FFF7EAF8C01B0228AF
:102740002BD828688001F7D4206AB0F5803F05D1E6
:102750006868A16820F4003008436860D4E9080183
:102760000843696821F4741108436860C6F86090F2
:10277000FFF7CEF8044606E025E000BFFFF7C8F8F3
:10278000001B022809D828688001F7D51BE000BF8C
:10279000FFF7BEF8001B022802D90320BDE8F88F1E
:1027A00028688001F4D40EE00128F7D06868226A16
:1027B00000F48031914204D1616A00F470108842C3
:1027C00001D00120EAE70020E8E700000010024005
:1027D00000004242800442420C0000200070004091
:1027E00010B5401EB0F1807F01D3012010BD4FF025
:1027F000E02460610F21601702F06EF90020A061F3
:1028000007202061002010BD70B590F83C20012AFF
:1028100026D0012480F83C40022280F83D20036845
:102820005A689D6822F070060A6832435A600D4B60
:1028300002689A4208D0B2F1804F05D00A4B9A4202
:1028400002D00A4B9A4204D1496825F0800319430B
:10285000916080F83D40002180F83C10084670BD32
:10286000022070BD002C0140000400400008004020
:1028700010B5040003D094F83D0010B107E001202A
:1028800010BD002084F83C00204600F01FF8022014
:1028900084F83D00211D206801F0CAFD012084F864
:1028A000460084F83E0084F83F0084F8400084F835
:1028B000410084F8420084F8430084F8440084F81E
:1028C000450084F83D00002010BD000008B50068F8
:1028D000B0F1804F08D10548C16941F00101C161E3
:1028E000C06900F00100009008BD00000010024027
:1028F00070B5044690F83C000025012817D0012649
:1029000084F83C60022084F83D002068826822F050
:10291000770222F47F4282600868502838D00DDCAC
:1029200020284FD005DC90B3102811D14AE00220B6
:1029300070BD302846D040280AD13BE060282FD017
:1029400070280DD0B0F5805F03D0B0F5005F12D0D5
:10295000012584F83D60002084F83C00284670BDC5
:10296000CB68D1E90121206801F0ABFD20688168C6
:1029700041F0770109E0CB68D1E90121206801F03D
:10298000A0FD2068816841F480418160E1E719E0A1
:10299000CA684968206801F049FE5021206806E0B5
:1029A000CA684968206801F052FE6021206801F081
:1029B00092FDCEE7CA684968206801F037FE4021E1
:1029C0002068F4E7226801461046F0E700B585B0BC
:1029D000002100910191029103910068B0F1804FB4
:1029E00011D10A48816941F0040181618069694619
:1029F00000F0040004900320009002200190039056
:102A00000348FEF78BFE05B000BD00000010024039
:102A10000008014070B5044690F83C0000260D46C1
:102A200001280FD0012084F83C006AB1042A1DD08F
:102A3000082A2FD00C2A3FD00126002084F83C0021
:102A4000304670BD022070BD206801F04DFD206849
:102A5000816941F0080181612068816921F00401E8
:102A60008161206881692A69114311E0206801F0C1
:102A700063FD2068816941F400618161206881699A
:102A800021F480618161206881692A6941EA02211B
:102A90008161D2E7206801F07BFD2068C16941F0C7
:102AA0000801C1612068C16921F00401C161206889
:102AB000C1692A69114311E0206801F095FD206881
:102AC000C16941F40061C1612068C16921F480617C
:102AD000C1612068C1692A6941EA0221C161ACE78C
:102AE00010B5040003D094F83D0010B107E00120B8
:102AF00010BD002084F83C00204600F01EF80220A3
:102B000084F83D00211D206801F092FC012084F82A
:102B1000460084F83E0084F83F0084F8400084F8C2
:102B2000410084F8420084F8430084F8440084F8AB
:102B3000450084F83D00002010BD704710B50446E4
:102B4000022249B104290ED0082913D094F841007B
:102B5000012816D0012010BD94F83E000128F9D1BB
:102B600084F83E200FE094F83F000128F2D184F869
:102B70003F2008E094F840000128EBD184F8402081
:102B800001E084F841200122206801F08DFC0F490A
:102B90002068884203D1426C42F4004242642068BB
:102BA000884208D0B0F1804F05D00949884202D050
:102BB0000849884204D1816801F00701062903D041
:102BC000016841F001010160002010BD002C0140AE
:102BD000000400400008004038B5044690F8420068
:102BE000202801D0022038BD51B14AB10120206314
:102BF00000206063204601F0ADFE216B012901D069
:102C0000012038BD21680A684968009121680C31AB
:102C100051E8002F42F0100241E80023002BF5D1CB
:102C200038BD000010B50C46084802F0D6FF28B9A0
:102C3000064922468039054802F0F2FF0348802108
:102C4000BDE810408038FDF796BA0000E802002089
:102C500070470000F8B5016804460868CA684B6907
:102C600010F00F0F4FF0000559D003F0010602F4E9
:102C70009077374365D0C10705D0D10503D5616C86
:102C800041F001016164410705D5D90703D0616CAA
:102C900041F002016164810705D5D90703D0616C59
:102CA00041F004016164010707D502F020013143BE
:102CB00003D0616C41F008016164616C00293AD075
:102CC000800604D5900602D5204601F086FD2068D6
:102CD0004069616CC0F38010090700D460B32046DE
:102CE00001F046FD20684069400621D52068143077
:102CF00050E8001F21F0400140E80012002AF5D101
:102D0000E06BA8B16D494163E06BFEF7A7FB0028BB
:102D100011D0E06B416B01B0BDE8F040084783067D
:102D20000FD593060DD52046BDE8F84001F055BDFE
:102D30002046FFF78DFFF8BD2046FFF789FF656449
:102D4000F8BD266B2023012E7CD1C6067AD5D60687
:102D500078D508684868009048694FF00206400638
:102D600040D5E16B086840680004000CE8D0A28DF3
:102D70008242E5D9E085886920282DD020680C3072
:102D800050E8001F21F4807140E80012002AF5D1BC
:102D90002068143050E8001F21F0010140E80012C3
:102DA000002AF5D12068143050E8001F21F04001BE
:102DB00040E80012002AF5D184F8423025632068EB
:102DC0000C3050E8001F21F0100140E80012002AEA
:102DD000F5D1E06BFEF71EFB6663A08DE18D401A16
:102DE00081B22AE0A08DE18D401A81B2E08D0028E9
:102DF000A6D00029A4D022680C3252E8000F20F49B
:102E0000907042E80007002FF5D12068143050E898
:102E1000002F22F0010240E80027002FF5D184F8AE
:102E20004230256320680C3050E8002F22F0100259
:102E300040E80023002BF5D166632046FFF7F2FE41
:102E4000F8BDFFE705062BD5150629D594F84100F6
:102E50002128F5D1A068B0F5805F01D12069B0B11B
:102E6000206A411C2162216800784860E08C401E85
:102E70000004000CE084E3D12068C16821F08001E7
:102E8000C1602068C16841F04001C160D8E7206A94
:102E90000088C0F308004860206A801C2062E5E7D3
:102EA0004006CDD55006CBD5CA68204622F0400258
:102EB000CA6084F8413000F0DFF8C1E773460008CB
:102EC00070B5040004D094F84100002510B106E06C
:102ED000012070BD84F84050204600F023F82420E3
:102EE00084F841002068C16821F40051C160204687
:102EF00001F0D4FC2068016921F49041016120684F
:102F0000416921F02A0141612068C16841F4005102
:102F1000C1606564202084F8410084F84200656344
:102F2000002070BD70B586B000250646009501955D
:102F3000029503950068224988423FD1214988695A
:102F400040F480408861886900F48040049088697A
:102F500040F00400886188691B4C00F00400049074
:102F600048150090022001900320039069462046F6
:102F7000FEF7D4FB2015CDE90005694620460295F1
:102F8000FEF7CCFB124C1148C4E900058020C4E9CF
:102F90000250256180016561C4E906502046FEF7B4
:102FA00057FB08B1FDF7DCFFF46300221146252032
:102FB0006662FFF701F92520FFF7F0F806B070BD53
:102FC0000038014000100240000801405800024053
:102FD00024020020704770472DE9F843044690F81A
:102FE0004100984616460D46202802D00220BDE832
:102FF000F88385B17EB100206064212084F841000F
:10300000FEF786FCA6848146E684A0682027B0F5FA
:10301000805F02D003E00120E9E7206910B12E466D
:1030200000250EE000260CE08021204601F0DAFCAD
:10303000A8B9C6B116F8010B21684860E08C401EA3
:10304000E084E08C4B464FF00002CDF80080002871
:10305000EAD14FF04001204601F0C4FC40B184F8B1
:1030600041700320C3E735F8020BC0F30800E3E723
:1030700084F841700020BAE77047FEE70148FEF788
:103080004FBC0000FC00002038B5406A002190F8D9
:103090003D202B4B46F2A8141B68B3FBF4F3C3EBA3
:1030A000C30303EB830300933BB15B1E00930368F0
:1030B0001B689B0505D5009BF6E7036C43F02003D6
:1030C0000364436B03B19962836B03B19962036834
:1030D0001C6824F480641C604185436B03B1596310
:1030E000836B03B1596303681C6824F001041C60FE
:1030F00090F83D402023602C0BD0282434EA0202B3
:103100000FD080F83D3080F83E1000BFFEF720FD64
:1031100038BD80F83D3080F83E100164FEF7FEFBBC
:1031200038BD0268136843F0010313600268136836
:1031300043F480631360016380F83D40E6E70000DC
:103140000C00002010B5406A0021426B02B1916270
:10315000826B02B191620268136823F4806313608A
:103160004185202280F83D2080F83E10016C41F01E
:1031700010010164FEF7ECFC10BD2DE9F041446A3A
:1031800094F83D2094F83E50E16A2068436823F4A7
:1031900040734360636B002003B19862A36B03B17B
:1031A0009862212333EA02074FF022060CD036EA58
:1031B000020701D1202D07D094F83E20002A21D00B
:1031C000628D012A20D024E021684D6825F4006535
:1031D0004D6060852820292A02D02A2A07D00CE0D9
:1031E000236384F83D002046FEF77FFF05E0266359
:1031F00084F83D002046FEF777FF2068416841F4DF
:1032000040714160BDE8F0812268136823F4806357
:1032100013602268536823F44073536011F5803FB4
:1032200006D0082904D0B1F12A4F01D0202904D1B9
:103230002268136843F4007313602268536823F410
:10324000805353602268536823F4006353606085A1
:10325000226C1AB12046FEF77BFCD3E7202284F8CB
:103260003D2094F83E2084F83E00402A09D00829E9
:1032700002D0202900D0122020632046FEF72FFD27
:10328000C0E720632046FEF7EFFDBBE70068416919
:10329000C943090601D400210161704770B5044695
:1032A00090F83D0094F83E10102901D0402906D135
:1032B000222804D121680A6822F400620A602821C9
:1032C00031EA00024FF000054FF0200626D02168B9
:1032D0004968090505D4602803D084F83D6084F866
:1032E0003E50256320684168090537D5416821F4BF
:1032F00000614160606B90F821203C49012A11D0A7
:103300004163606BFEF7AAF838B32068016821F0CA
:103310000101016084F83D60606B1CE0256384F866
:103320003D10DFE7A06B4163A06BFEF797F8A0B1FB
:1033300020684169C943490605D40069616A08707B
:10334000606A401C60622068016821F00101016030
:1033500084F83D60A06B416B884710E094F83D1005
:10336000602910D04169C943490605D40069616AE2
:103370000870606A401C60622046FEF7E9FB206C22
:10338000C1071CD115E084F83D6025644169C9433B
:10339000490605D40069616A0870606A401C606271
:1033A0002068016821F0010101602046FEF7B6FAAD
:1033B000E5E7810703D4410701D4000704D520685D
:1033C000416821F4E061416094F83D00216C4907B7
:1033D0000BD5282809D10648E062256384F83D60B2
:1033E00084F83E502046FEF779FC70BD8930000815
:1033F0000000FFFF01684A69D24352050FD46FF401
:1034000080624A61002140F8301F2022427381739C
:10341000026942F00402026101730120704700203A
:10342000704710B5C26A438D0168042B06D0438DE6
:10343000032B08D0438D022B1DD012E04A6822F4E2
:1034400080624A600CE04B6823F480634B60042A7E
:1034500006D0022A04D001680A6822F480620A6059
:1034600001680969426A1170416A491C4162418DD3
:10347000491E418510BD012A34D0102A32D0042AB9
:1034800034D0022A32D00B6843F400730B60016819
:103490000969436A1970416A491C4162438D5B1E88
:1034A000438503681B690B70416A491C4162418D69
:1034B000491E418501684B6823F440734B6020210D
:1034C00080F83D1090F83E300021402B80F83E10EF
:1034D00010D0082A02D0202A00D012210163FEF762
:1034E000FEFB10BD0B6823F48063CFE70B6843F449
:1034F0008063CBE70163FEF7B7FC10BD38B590F8E9
:103500003D10222910D1C36A418D03290DD90168CC
:103510000969426A1170416A491C4162418D491E24
:103520004185418D032906D038BDC26A022A02D0E6
:10353000012906D029B10068416821F48061416009
:1035400038BD2A4A46F2A81400211268B2FBF4F2F0
:1035500002EB8202009202682024009D6D1E0095FD
:1035600026D01568AD05F8D4156825F4806515607A
:103570000268556825F4E065556002681269456A7D
:103580002A70426A521C4262428D521E428580F865
:103590003D4090F83E2080F83E10402A21D0082B74
:1035A00002D0202B00D012210163FEF798FB38BD1A
:1035B000036C43F020030364536823F4E063536017
:1035C00002681269436A1A70426A521C4262428D52
:1035D000521E428580F83D4080F83E10FEF7B8FA52
:1035E00038BD0163FEF740FC38BD00000C00002030
:1035F00010B5C26A90F83D1021290BD1418D51B10F
:10360000416A026809781161416A491C4162418D31
:10361000491E418510BD20230021082A13D0202AED
:1036200011D012F5803F0ED00268546824F4E06493
:1036300054601122026380F83E1080F83D3000BFD4
:10364000FEF74EFB10BD0268546824F4E064546039
:103650000268146844F400741460016380F83D301B
:1036600090F83E2080F83E10402AE9D1FEF7FEFB9C
:1036700010BD000010B590F83D1090F83E30C26AC1
:10368000048DB4B1212903D0402B11D122290FD1AF
:10369000418DE1B390F83E10402942D0416A026862
:1036A00009781161416A491C4162418D491E418579
:1036B00010BD2129E8D120230021082A13D0202A77
:1036C00011D012F5803F0ED00268546824F4E064F3
:1036D00054601122026380F83E1080F83D3000BF34
:1036E000FEF7FEFA10BD0268546824F4E0645460EA
:1036F0000268146844F400741460016380F83D307B
:1037000090F83E2080F83E10402AE9D100E002E027
:10371000FEF7ACFB10BD0068416821F48061416098
:1037200010BDBDE8104000F0F3B8000078B590F887
:103730003E50C26A046B90F83D6000230168222E5F
:1037400073D1066D0EB9402D6FD0056D1DB9056999
:10375000B5F5404F1BD0458D95B3468D484D012E94
:1037600020D0448D022C4DD00C6844F480640C6051
:1037700001684C68240579D5AA4273D0012A71D01A
:10378000082A6FD0102A6DD0202A6BD06EE04A69CB
:103790008A6900920A6842F480720A60016D491CCD
:1037A000016578BDAA4214D10A6822F480620A60D9
:1037B00001684A68120504D50A6822F4806217E09D
:1037C000FFE74A698A6900920A6842F400720A6057
:1037D00050E0082A10D0202A0ED0122C0AD0042A39
:1037E00003D0022A01D0102AE6D10A6842F480628E
:1037F0000A603BE0012ADFD00A6822F480620A6096
:103800000168DEE7042A11D0022A0FD0102A0DD059
:103810000C6844F400640C6001684C698C69009485
:103820000C6824F480640C6008E025E00C6844F423
:1038300080640C6001684C698969009101684C687A
:10384000240517D5AA4207D0012A05D0082A03D09B
:10385000102A01D0202A0DD14A6842F480524A60D1
:1038600008E0FFE74A6842F480524A6001684A690A
:1038700089690091036578BD48698869009078BDC1
:103880000000FFFF90F83E10402910D00169B1F50B
:10389000804F19D0016DA9B3016D012910D1416C80
:1038A0005FF0F10201F4407142EAD11106E0016DCE
:1038B0000029416C05D0C9B241F0010100680161E5
:1038C000704701F0FE01F9E790F83D102129416CA5
:1038D00009D0C9B241F0010102681161416B29B1FF
:1038E000896A49B902E001F0FE01F5E7816B002920
:1038F000E6D0896A0029E3D00068416841F400619C
:1039000041607047FFE7416CF02201F44071CBE762
:1039100010B590F83D10026D4AB1026D012A14D025
:10392000026D022A16D0BDE81040FFF7AFBCC16C93
:103930000129816C02D0C1F3072108E00268C9B2F5
:103940001161016D891C016510BD816CC9B20268ED
:10395000116123E022291CD0428D0AB1212920D0F7
:10396000428D002AF0D12129EED101684A6822F463
:10397000E0624A6001680A6842F400720A6000214D
:103980000163202280F83D2080F83E10FEF76EFA99
:1039900010BD01680A6842F480720A60016D491C1A
:1039A000D1E7416A026809781161416A491C4162A4
:1039B000418D491E418510BD2DE9F843044600683C
:1039C0000D46DDE9089701689846164641F4807176
:1039D00001604B4600224FF001112046009700F095
:1039E00011F948B120680068C00502D54FF4007095
:1039F00020640320BDE8F883216805F0FE0008611B
:103A00003B464A461549204600F044F988B92068EB
:103A10004169806900903A464946204600F098F98D
:103A200048B1206C042804D12068016841F4007179
:103A300001600120DEE7F5B2B8F1010F09D021687D
:103A4000300A08613A464946204600F081F90028CC
:103A5000E7D1206805610020CCE7000002000100EA
:103A600038B50C4690F83D20002128259543026882
:103A70000B4605D051699169009180F83C3038BD02
:103A8000556825F480655560E243540700D501214F
:103A9000120601D5828900E0028B80F83C3092B298
:103AA000FDF73DFF38BD0000F8B590F83D600446D5
:103AB0000068416821F4E0614160206800254169A7
:103AC0000091016841F0010101602068016821F462
:103AD0008061016020684168090520D5474F222E8A
:103AE00048D02A2E46D0616B096849686185618D8E
:103AF00019B1216C41F004012164416821F4006195
:103B00004160606BFDF7F6FC012808D0606B4763ED
:103B1000606BFDF7A3FC10B1606B416B8847608D53
:103B200008B320684169C943490708D40069616A3C
:103B30000870606A401C6062608D401E608520686D
:103B40004169C943490608D40069616A0870606A1E
:103B5000401C6062608D401E6085608D18B1206CD5
:103B600040F004002064206C00B32046BDE8F8401B
:103B7000FFF794BBA16B096849686185618D19B134
:103B8000216C41F004012164416821F4006141602D
:103B9000A06BFDF7AFFC0128C1D0A06B4763A06B01
:103BA000FDF75CFC0028BAD0A06BB6E72A2E06D140
:103BB0002563282084F83D002046FEF795FA94F806
:103BC0003D10202028290DD0216B222901D0222E42
:103BD00007D1256384F83D0084F83E502046FEF767
:103BE00083FAF8BD0649E162256384F83D0084F854
:103BF0003E502046FEF772F8F8BD000089300008FC
:103C00000000FFFF2DE9F047984617460D46044691
:103C1000C1F30746DDF820902AE000BFB8F1FF3F6E
:103C200026D0FDF775FEA0EB0901414502D8B8F199
:103C3000000F1DD12068012E16D0806925EA0000F2
:103C40000004000C12D00020B84211D1002044F82A
:103C5000300F20216173A073216941F0200121619F
:103C600020730120BDE8F0874069E7E70120EBE71A
:103C70002068012E0AD0806925EA00000004000CAB
:103C800006D00020B842C9D00020EBE74069F3E736
:103C90000120F7E72DE9F047984616460D46044601
:103CA0004FF000094FF0200AC1F3074723E02068D6
:103CB0004069C043400515D42068016841F4007193
:103CC000016021686FF480604861C4F8309084F826
:103CD0003DA084F83E90216C41F00401216484F8F9
:103CE0003C9021E0701C06D0FDF712FEA0EB08000E
:103CF000B04203D816B1012F1FD021E02068012F58
:103D000015D0806925EA00000004000C18D000BF1F
:103D100044F8309F84F80DA084F80E90216941F09A
:103D20002001216184F80C900120BDE8F0874069F2
:103D300025EA00000004000CEAD12068406901E097
:103D40002068806925EA00000004000CAFD1ECE790
:103D500070B516460D4604461EE02046FFF74AFBA6
:103D600008B1012070BD681C16D0FDF7D1FD801B85
:103D7000A84200D885B920684069C04300060BD529
:103D8000002044F8300F20216173A073216941F0B5
:103D9000200121612073E4E720684069C0430006E8
:103DA000DBD4002070BD0000FEB50021204800914A
:103DB00001911E4A029102609215826001250573ED
:103DC000017504244FF460220461C2614160FDF773
:103DD000BBF908B1FDF7C4F80227CDE90075052548
:103DE000694613480295FDF7BFF808B1FDF7B8F82A
:103DF000032669460E48CDE90067FDF7B5F808B11E
:103E0000FDF7AEF8CDE9004669460948FDF7ACF884
:103E100008B1FDF7A5F8CDE9005469460448FDF75F
:103E2000A3F8002801D0FDF79BF8FEBD0024014057
:103E300088000020114808B5416941F00101416145
:103E40004069002200F00100009011460B20FEF7AF
:103E5000B3F90B20FEF7A2F9002211460F20FEF75E
:103E6000ABF90F20FEF79AF9002211461020FEF759
:103E7000A3F9BDE808401020FEF790B900100240F9
:103E8000F0B585B000242048009401940294039476
:103E9000816941F020018161816901F02001049173
:103EA000816941F004018161816901F0040104919B
:103EB000816941F0080181618069144F00F00800B8
:103EC0004FF470460490002231463846FDF71BFD42
:103ED0004FF4406001258DE8310069463846FDF712
:103EE0001DFC0096CDE90154694638460395FDF75F
:103EF00015FC4FF4C0508DE8310069460448FDF7C9
:103F00000DFC05B0F0BD000000100240000C0140A7
:103F1000000801400D4810B50B4901600C49416093
:103F200000214FF480428160C0E903124161816148
:103F3000C1610162FDF70EFE002803D0BDE810400C
:103F4000FDF70EB810BD000000540040FC0000203A
:103F5000801A060010B58EB00024079408940994C6
:103F60000A940B941C2168460C94FCF704F9214830
:103F70004FF0804101602321C0E901146321C0E9B1
:103F800003148461FEF774FC08B1FCF7E9FF4FF4F9
:103F90008050079007A91748FEF7AAFC08B1FCF764
:103FA000DFFF1448FEF79CFD08B1FCF7D9FF0B9426
:103FB0000BA910480C94FEF727FC08B1FCF7D0FFC2
:103FC0006020CDE900040294002269460948049467
:103FD000FEF720FD08B1FCF7C3FF0422694605483F
:103FE000FEF718FD08B1FCF7BBFF0248FEF7EEFC38
:103FF0000EB010BD94010020114810B50F490160AA
:104000004FF416514160002181600C22C160C0E96B
:1040100004128161C161FEF753FF08B1FCF7A0FFF4
:10402000802208490648FEF7D7FD05484830006859
:10403000016821F00401016010BD0000003801405A
:10404000DC01002068020020FEE700002DE9F041BD
:104050000C46234D6642012810D002283DD1410371
:104060008703002C28DB00222846FDF74CFC0122A8
:1040700039462846FDF747FC204627E04FF480519B
:104080004F00002C0ADB00222846FDF73CFC0122F1
:1040900039462846FDF737FC204609E0012228462C
:1040A000FDF731FC002239462846FDF72CFC30464E
:1040B000FCF75EF901210CE001222846FDF723FC04
:1040C000002239462846FDF71EFC3046FCF750F921
:1040D0000221BDE8F04101F049BDBDE8F0810000DA
:1040E000000C0140FEE7000030B40021084B0A46F6
:1040F0005FF0000003EBC004401CC0B26254802893
:10410000F8D3491CC9B20829F2D330BC00F00CB96D
:10411000DC06002010B57F2816D83F2914D80723C5
:10412000A3EBD10301F00701C1F107040121A14074
:10413000064CDBB204EBC000002AC25CC9B201D05D
:104140000A4300E08A43C25410BD0000DC06002090
:104150002DE9F0431D4616460F4680460446DDF81D
:104160001C900BE04A4639462046FFF7D3FF4A46EB
:1041700029462046FFF7CEFF641CE4B2B442F1D9D1
:104180003C460BE04A4621464046FFF7C3FF4A46FD
:1041900021463046FFF7BEFF641CE4B2AC42F1D9C1
:1041A000BDE8F0832DE9F0410646022501F01AFB37
:1041B0000024A71F36F81400FCF7E8F83A46FCF78D
:1041C000C0F8FCF704F9284480B2402800D9402008
:1041D000C0F14000C1B201222046FFF79BFF641CE2
:1041E000E4B2802CE6D3BDE8F081000010B50020D9
:1041F00000F08AF80648007830B10648FFF7D2FF91
:10420000BDE8104000F090B801F07AF9F8E700003E
:1042100044000020540300202DE9FF4F203A1F46A0
:104220000C46894602F0FF0A0025DDF834B032E082
:104230000C2F09D01A4901EB0A104FF00008465D17
:10424000300607D55A4609E016490AEB4A0001EB49
:104250008000F2E7BBF1000F12D000222146009847
:10426000FFF758FF7006641C060EE4B2A4EB0900C9
:10427000B84207D100984C46401CC0B2009008E0FC
:104280000122EBE708F1010000F0FF08B8F1080F88
:10429000D6D36D1CEDB2BD42CAD3BDE8FF8F00007E
:1042A0007E6100080A5D0008F8B51F4616460D46F7
:1042B000044614E07A2C02D900241035EDB23A2DD0
:1042C00003D900242546FFF70FFF009732780C230F
:1042D00029462046FFF7A0FF0834E4B2761C307868
:1042E0000028E7D1F8BD00001CB51D210448CDE928
:1042F00000010123002278210248FDF7D3FD1CBDF7
:104300005E000020FC0000204FF48061012804D0F2
:10431000002806D10348FBF72EBFFF220148FBF718
:1043200023BF7047DC0600202DE9F041144D68786A
:10433000002822D1134E002406F580672146002074
:1043400000F024F8002007EBC41100BF06EBC00208
:10435000125D0A54401C80B28028F7D3641CE4B27A
:10436000082CEBD301206870BDE8F041054A042316
:10437000203A78210448FDF7CDBCBDE8F08100006B
:104380005C000020DC060020FC000020064B002220
:1043900001F1B00003F8212003EB810148701020E7
:1043A0008870CA7070470000BC06002070477047D4
:1043B000FDF79CBE30B593B028216846FBF7DBFEC5
:1043C00014210AA8FBF7D7FE002501200F951095B0
:1043D0001195010412958DE8230004904FF4E0102C
:1043E000CDE90810022407946846FEF769F808B181
:1043F00072B6FEE70AA90F2081E831004FF4806011
:10440000CDE90D0502210AA8FDF77EFF08B172B6BD
:10441000FEE74FF4004011900F940FA8FDF7FEFE49
:10442000002801D072B6FEE713B030BD704700001F
:10443000F0B50268194B1A4C1A4D4FF0804798425C
:1044400005D0B84203D0A04201D0A84203D122F047
:1044500070064A683243984205D0B84203D0A04261
:1044600001D0A84203D122F44074CA6822434C69A7
:1044700022F08002224302608A68C2620A68826275
:10448000984201D109690163012141610169C907AC
:1044900003D0016921F001010161F0BD002C014050
:1044A000000400400008004010B501F01F03012186
:1044B000046A99408C430462016A9A401143016284
:1044C00010BD10B5846842EA032224F47F440A43F5
:1044D0002243826010BD826822F070020A4342F0DB
:1044E000070181607047000030B5036A026A22F05C
:1044F000010202624268846924F073050C682C434F
:1045000023F002058B682B430A4DA8420BD123F000
:104510000805CB6822F440722B434D6923F0040355
:1045200015438A692A434260846149684163036292
:1045300030BD0000002C014030B5026A036A23F050
:1045400010030362436884690D6824F4E64444EA76
:1045500005248D6822F0200242EA05120B4DA84284
:104560000ED1CD6822F0800242EA05124D6923F493
:10457000406343EA85038D6922F0400243EA8503E4
:104580004360846149688163026230BD002C014050
:1045900030B5036A026A22F4807202624268C4691A
:1045A00023F4007324F073050C682C438D6843EAF0
:1045B00005230C4DA8420ED1CD6823F4006343EAD5
:1045C00005234D6922F4405242EA05128D6923F415
:1045D000806342EA05124260C4614968C1630362B4
:1045E00030BD0000002C014030B5046A026A22F49C
:1045F000805202624268C3690D6823F4E64343EACD
:1046000005238D6824F4005444EA0534064DA8427D
:1046100004D14D6922F4804242EA85124260C361AE
:1046200049680164046230BD002C014010B5036A82
:10463000046A24F001040462846924F0F00444EA6A
:10464000021423F00A020A438461026210BD10B50D
:10465000036A046A24F010040462846923F0A0034E
:1046600024F4704444EA023243EA01118261016297
:1046700010BD10B5406A0021C185C184FEF7E8FA7B
:1046800010BD70B5446A2068406994F84110C0F3C9
:10469000C0100025212904D118B1E584204600F07E
:1046A0008EF82068406994F84210C0F380102229E7
:1046B00004D118B1E585204600F05AF8606C40F04E
:1046C000100060642046FEF7C3FA70BD10B50146C5
:1046D000406A096809684FF0000289062ED4C28535
:1046E00001680C3151E8003F23F4807341E8003445
:1046F000002CF5D10168143151E8003F23F001038B
:1047000041E80034002CF5D10168143151E8003F34
:1047100023F0400341E80034002CF5D1202180F83B
:104720004210016B012909D101680C3151E8003FA9
:1047300023F0100341E80034002CF5D14263016BF3
:10474000012902D0FEF746FC10BD818DFEF76AFA02
:1047500010BD10B5406A01214163016B012902D0EF
:10476000FEF739FC10BD818D4908FEF75BFA10BDDC
:1047700001680C3151E8002F22F4907241E80023C7
:10478000002BF5D10168143151E8002F22F001020D
:1047900041E80023002BF5D1016B012909D1016803
:1047A0000C3151E8002F22F0100241E80023002BC9
:1047B000F5D1202180F84210002101637047016883
:1047C0000C3151E8002F22F0C00241E80023002BF9
:1047D000F5D1202180F84110704708B590F84210BB
:1047E000222901D0022008BD82684FF480539A42EA
:1047F00001D1016921B1816A9A421BD04AB10AE014
:104800000268816A5268C2F308020A80816A891CC0
:1048100008E0026972B10268526802F07F020A7011
:10482000816A491C8162C18D491E0904090CC18538
:1048300003D01BE002685268F1E70168CA6822F001
:104840002002CA600168CA6822F48072CA600168E6
:104850004A6922F001024A61202180F842100021B9
:104860004163026B012A03D0FEF7B4FB002008BDB0
:10487000016301680C3151E8002F22F0100241E879
:104880000023002BF5D101680A68D20602D50A6818
:1048900049680091818DFEF7C5F9E7E770B50446D8
:1048A00000680169E26821F4405111430161216906
:1048B000A0680843616908432168CA6841F20C6333
:1048C0009A430243CA6020684169A26921F4407199
:1048D000114341611E492068884202D1FDF7BAFDAB
:1048E00001E0FDF7A7FD00EBC00101EB00126068DD
:1048F00064218000B2FBF0F3B3FBF1F36FF0180614
:104900007343B2FBF0F5B2FBF0F605EB83053223FF
:1049100003EB0515B5FBF1F5B6FBF1F605F0F00577
:1049200005EB0615B2FBF0F6B2FBF0F0B0FBF1F0D0
:104930006FF01802504306EB800003EB0010B0FB51
:10494000F1F0216800F00F002844886070BD00007D
:104950000038014038B58162044682850020134644
:104960006064222284F84220E56B1B4AAA62E56B50
:104970001A4AEA62E56B1A4A2A63E26B50630A46F6
:104980002168E06B091DFCF791FE20680168406812
:104990000090206948B120680C3050E8001F41F4B5
:1049A000807140E80012002AF5D12068143050E8E8
:1049B000001F41F0010140E80012002AF5D12068F3
:1049C000143050E8001F41F0400140E80012002A76
:1049D000F5D1002038BD0000CD460008534700083F
:1049E000834600082DE9F843984617460D460446CD
:1049F000089E24E0701C22D0FCF78AFFA0EB080080
:104A0000B0421AD8CEB12068C168490717D5802DA9
:104A100015D0402D13D00168C94309070FD4016890
:104A20000025406800902046FFF7A2FE0820606441
:104A300084F840500120BDE8F8830320FBE720689C
:104A4000006835EA000004D00020B842D2D000202F
:104A5000F1E70120F9E7000010B50748FEF7FAF882
:104A6000802206490448FEF7B7F805480068016847
:104A700021F00401016010BDDC010020680200206B
:104A800024020020FEE700000FB4054B10B503A977
:104A9000044A029800F002F910BC5DF814FB000013
:104AA000115800087C0000200FB41CB502460020FD
:104AB00007AC00290BD0491ECDE90021054B6A4601
:104AC0002146069800F0EAF8009A002111701CBCFB
:104AD0005DF814FBCB5300080907090E002804DB1E
:104AE00000F1E02080F80014704700F00F0000F1A2
:104AF000E02080F8141D704702E008C8121F08C1AA
:104B0000002AFAD170477047002001E001C1121F4E
:104B1000002AFBD1704700002DE9FF5F82B0002121
:104B2000DDE90430020DDDF840B0034318D044F64F
:104B30001050A2F2FF3242431514119801281FD0E1
:104B4000A5EB0B00401C5FEA000A4FF000064E4F39
:104B5000DFF83891B046504615D5CAF1000413E08D
:104B6000119801244AA3012801D16FEA0B01029890
:104B7000119AC0E90031C0E9024206B0BDE8F09FD9
:104B8000CBF10000DFE704460021404A491842EB20
:104B90000450CDE9001012E0E00707D032463B4652
:104BA00040464946FBF7C1FD8046894632463B46B2
:104BB00010461946FBF7B9FD06460F466410002C57
:104BC000EAD1DDE90401DDE90023BAF1000F06DADC
:104BD000FBF7ABFD42464B46FBF7A7FD05E0FBF7B5
:104BE00016FE42464B46FBF712FE04460E460022D6
:104BF000284BFBF793FE03D84FF0FF30014607E048
:104C00000022254B20463146FBF7E8FCFBF76EFE01
:104C1000102409E0002C0ADB0A220023FBF719FC10
:104C2000039B30321A55641E50EA0102F2D1641C13
:104C3000039AC4F111031444119A012A03D00122EA
:104C400008430DD10AE0084304D000204FF0110BB7
:104C5000119072E7A3EB0B056D1E0DE05B4504DDC3
:104C60004FF0000205F1010504E003DA4FF0000205
:104C7000A5F10105002AECD002981199C0E9023192
:104C8000C0E9004579E70000000014400000F03F53
:104C9000300000000000F0430000E03F2DE9FF4F2E
:104CA00095B09B468946064600250FE2252877D118
:104CB00000242746F84A0121059400E0044316F831
:104CC000013F203B01FA03F01042F7D130782A2847
:104CD00011D06FF02F033078A0F13002092A16D8D6
:104CE000059A44F0020402EB820203EB42021044F4
:104CF000761C0590EFE759F8042B0592002A03DA99
:104D0000504244F40054059044F00204761C30787C
:104D10002E2816D116F8010F44F004042A280DD0CD
:104D20006FF02F023078A0F13003092B09D807EB80
:104D3000870302EB4303C718761CF3E759F8047B9B
:104D4000761C30786C280FD006DC4C2817D06828E9
:104D50000DD06A2814D104E0742810D07A280FD11D
:104D60000DE044F400140AE044F4801401E044F43B
:104D700040147278824202D104F58014761C761CAD
:104D8000307866280BD013DC582877D009DC00284F
:104D900075D04528F6D04628F4D047281AD19DE191
:104DA00018E0632835D0642879D0652812D195E1C0
:104DB000702873D008DC6728F1D069286FD06E287E
:104DC0000DD06F2806D1B5E073282CD0752875D08A
:104DD000782874D05A46179990476D1C75E1C4F332
:104DE0000250022809D003280DD0D9F80010042859
:104DF0000DD00D6009F1040967E1D9F80010EA1738
:104E0000C1E90052F6E7D9F800100D80F2E70D7005
:104E1000F0E719F8041B8DF8001000208DF8010050
:104E2000EA46012003E059F804AB4FF0FF30610778
:104E30004FF0000102D40DE008F101018846B942AB
:104E40000FDA8045F8DB1AF808100029F4D108E0E1
:104E500008F1010188468142FADB1AF8081000299E
:104E6000F6D105985B46A0EB080721463846179A0D
:104E700000F094FA284400EB080507E04DE029E132
:104E80000DE01AF8010B5A4617999047B8F101083E
:104E9000F7D25B4621463846179A13E142E00A22D0
:104EA0000092C4F302524FF0000A022A08D059F8C7
:104EB00004CB032A4FEAEC710AD00DE029E02AE086
:104EC00009F1070121F00702F2E802C1914609E069
:104ED0000FFA8CFC4FEAEC71042A03D14FFA8CFCD8
:104EE0004FEAEC71002907DA0A460021DCF1000CD8
:104EF00061EB02012D2202E0220504D52B228DF860
:104F00000420012203E0E20701D02022F7E79046C7
:104F100059E00A2102E010220DE010214FF0000AB2
:104F200000910BE010224FF0000A44F0040408271F
:104F3000009203E008224FF0000A0092C4F30252EC
:104F4000022A05D059F804CB0021032A08D009E031
:104F500009F1070121F00702F2E802C1914605E0DC
:104F60001FFA8CFC042A01D10CF0FF0C4FF0000852
:104F7000220728D5702806D0009B83F0100353EA3F
:104F80000A0305D00EE040228DF80420012208E03B
:104F90005CEA010206D030228DF804208DF805006D
:104FA00002229046009B83F0080353EA0A030AD1C9
:104FB0005CEA010201D1620705D530228DF8042098
:104FC0004FF001087F1E582804D034A003900EA88B
:104FD00002900DE036A0F9E753466046009AFBF7D1
:104FE00038FA84460398825C0298401E0290027050
:104FF0005CEA0100F0D1029806A9081A00F1200A23
:10500000600702D524F4803400E00127574502DD13
:10501000A7EB0A0000E0002000EB0A0100900598D1
:105020004144401A0590E00306D45B462146179A96
:10503000059800F0B3F90544002706E001A85A4698
:10504000C05D179990476D1C7F1C4745F6DBE00358
:105050000CD55B462146179A059800F09FF9054448
:1050600004E030205A46179990476D1C0099481E5D
:1050700000900029F5DC08E0029802995A46007871
:10508000491C0291179990476D1CBAF10001AAF1D1
:10509000010AF1DC65E100000928010030313233FA
:1050A0003435363738396162636465660000000064
:1050B000303132333435363738394142434445464E
:1050C0000000000000F058F90544761C30780028F4
:1050D0007FF4ECAD19B02846BDE8F08F620700D42C
:1050E000062709F1070222F0070CFCE80223E1463B
:1050F00003F000485FEA080C02D00FF2702C0DE0BC
:105100005FEA045C02D50FF2682C07E05FEAC47C1A
:1051100002D00FF2602C01E0AFF2700C4FF0FF38BC
:1051200023F00043CDF850C065280CD006DC45289C
:1051300009D046281DD047283DD13DE0662818D02B
:1051400067287ED138E00021112F01DB112000E01B
:10515000781CCDE9000106A90EA8FFF7DDFCDDE90A
:105160000F010E9A03910021009207F1010A0491A8
:105170004DE04FF000400097CDE9011006A90EA8C0
:10518000FFF7CAFCDDE90F0203920E9B1199002282
:10519000DDF80CA00093049211B9791C00EB010A10
:1051A000B7EB0A0004D4C0F1FF3007F1010A049004
:1051B000AAEB0700019044E0012F00DA012700214B
:1051C000112F01DD112000E03846CDE9000106A9CC
:1051D0000EA8FFF7A1FCDDE90F010E9A0391002153
:1051E00004910092BA4621070CD40399514500DA84
:1051F0008A46BAF1010F05DD009AAAF10101515C5E
:10520000302908D0B84202DA10F1040F06DA012181
:10521000CDE9011015E0AAF10101E9E7002805DC5C
:10522000049901440491AAEB000102E0411C51459C
:1052300000DD8A460499401A401C01904FF000405E
:105240000290200704D40198504501DBCDF804807A
:1052500000208DF84F0002980DF14F07B0F1004F7C
:1052600025D02B200E9002984FF0020800280CDA6F
:10527000404202902D200E9007E00A210298FBF791
:10528000D2F83031029007F8011DB8F10001A8F101
:105290000108F2DC02980028EFD1791E0E98087000
:1052A000307800F0200040F0450007F8020D12A809
:1052B000C01B00F107081498007800B1012000EB32
:1052C0000A01019801EBE07105984144401A401E23
:1052D0000590E00306D45B462146179A059800F036
:1052E0005DF805441498007818B15A46179990470C
:1052F0006D1CE00324D55B462146179A059800F003
:105300004DF805441CE00498002807DBDDE90301A3
:10531000884203DD0098405C179901E0179930201E
:105320005A469047049805F10105401C04900198E5
:10533000401E019004D12E205A46179990476D1CAB
:10534000BAF10001AAF1010ADDDC05E017F8010B52
:105350005A46179990476D1CB8F10001A8F1010851
:10536000F4DC5B462146179A0598ABE62D00000059
:105370002B000000200000002DE9F041044600252C
:105380001E461746880404D405E039462020B0475D
:105390006D1C641EF9D52846BDE8F0812DE9F04169
:1053A000044600251E469046C80301D5302700E07C
:1053B0002027880404D505E041463846B0476D1CD7
:1053C000641EF9D52846BDE8F0814A68002A06D057
:1053D0000A68531C0B6010704868401E4860704794
:1053E0002DE9F0412E4C00200546E060A060606091
:1053F000A4F5F077C4F8000007EB05163068FAF75B
:10540000C0FF2168FAF7D5FE20607068FAF7B9FF8F
:105410006168FAF7CEFE6060B068FAF7B2FFA16883
:10542000FAF7C7FEA060F068FAF7ABFFE168FAF799
:10543000C0FE6D1CEDB2E0601E2DDDD3194D20685D
:105440002946FAF740FF184E3146FAF70AFF174F80
:105450003946FAF738FF206029466068FAF733FFCB
:105460003146FAF7FEFE3946FAF72DFF606029460D
:10547000A068FAF728FF3146FAF7F3FE3946FAF743
:1054800022FFA0602946E068FAF71DFF3146FAF7CF
:10549000E8FE3946FAF717FFE060BDE8F08100004A
:1054A000340600200000F0413333534000F07F45C4
:1054B000026812B901607047024690690028FBD16A
:1054C0009161CA617047000007490A6910180861B4
:1054D00001D5002002E0642801DD64200861014656
:1054E00002A0FFF7D1BA00004800002056616C7599
:1054F000652061646A75737465643A2025640A00E6
:105500002DE9F047464C98B0606830B10020FEF7B6
:10551000FBFE607830B143A205E000F0A7FA18B0B6
:10552000BDE8F08743A214210FA8E368FFF7BCFA97
:105530000025294601230FAA2846FEF7B5FE4FF0A5
:105540000108464600F070F9042809D994F90010C2
:10555000001F814200DD207094F90000002800DA6D
:105560002570002094F90010656803E005B1AD696D
:10557000401CC0B28842F9DB0027EDB32B68DBB3D7
:105580001878C8B32EA2322102A8FFF78DFA287925
:10559000022802D003280BD018E0A868B0B1007828
:1055A00008B128A100E028A102A8FAF7EFFD0DE05C
:1055B000A86858B10068FAF723FFCDE9000124A2DA
:1055C0000A2114A8FFF770FA14A9EDE707EB060902
:1055D00009EB49004FEA800A0AF0FF01012302AA01
:1055E0000020FEF761FE606885420FD109EB49009B
:1055F0000B2101EB800000E00EE0C3B20AF0FF01D6
:105600007F220020CDF80080FEF7A2FDAD697F1C4F
:10561000FFB20DB1042FB1D3FEF786FE7FE7000085
:10562000480000204C6576656C3A2025642028539C
:10563000657429004C6576656C3A2025640000008D
:1056400025730000204F4E00204F4646000000000A
:1056500020252E326600000070B53D4C00266168A2
:1056600029B10A79032A02D16278012A0CD00128D3
:105670001DD0022826D0364A364D0328D3689268BA
:105680002ED0042854D149E0012804D0022806D0A5
:1056900004284DD109E0496909B3012003E04969B3
:1056A000E9B14FF0FF30884742E0667040E0B1B1A9
:1056B000C869A0B1606094F90000002838DD401E80
:1056C000207035E059B1886948B1606000F0ACF8ED
:1056D00094F900100A1D90422ADD491C217027E030
:1056E00031B3087930B1012806D002280FD0032841
:1056F0001ED110E088680BE0092A19DA521CA2605A
:1057000045F8221088685B1CE360606010E0C868A0
:1057100070B180470CE00120607009E0002A07DBCF
:1057200055F82200211D521E5B1E81E80D002670D7
:1057300094F9001008A0FFF7A7F900F075F80146EA
:105740000AA0FFF7A1F9BDE87040FFF7D9BE00003D
:1057500048000020940600207363726F6C6C5F6FCA
:1057600066667365742C25640A000000616C6C3AEF
:1057700025640A00044948604FF0FF30886000202B
:10578000C860FFF7BDBE0000480000202DE9F041D1
:1057900080461E4617460D46202000F031F9041EB3
:1057A0001CD0404600F060FA20602571002035B121
:1057B000012D06D0022D06D0032D07D00BE0A760E7
:1057C00009E0A66007E0A060E06004E00449A06092
:1057D000C4E903016061A061E0612046BDE8F08199
:1057E0000000C84210B5002401223F212046FEF7E8
:1057F00091FC641CE4B27F2CF6D9002401222146DE
:105800000020FEF787FC641CE4B23F2CF6D910BDE3
:1058100013B50A23012269460248FDF7DDFB009813
:105820001CBD0000DC01002004490020496802E0A2
:10583000401C8969C0B20029FAD170474800002095
:105840001448134A0023111582608181012181705F
:10585000C370114B0361C261CA0202848175C175B4
:105860000E4B43620E4B0363828680F82A1002229D
:1058700080F82B200B4A436482630A03A0F8482077
:1058800080F83E10032180F83F100749C16470473B
:10589000000C014044060020050B0008810B0008A5
:1058A00000080140FD0B0008750C00082DE9F041CF
:1058B0000B4D00260B4F2E70344600BF04EB8400C6
:1058C00007EB800000F010F8641CE4B2042CF5D360
:1058D000287808B1FFF7C0FE2E70BDE8F081000007
:1058E000450000204406002070B504468189806888
:1058F000FCF704F8217911B12288521C2280A27889
:105900000025824206D0A279521CD2B2A271032A8B
:1059100001D3A070A571012099B1012918D00229E5
:1059200012D1218814292DD325716079012827D01F
:10593000022809D10420A07320462169BDE87040E7
:105940000847A17809B1A57370BD258060710DE08D
:10595000A178002921880BD002201E2905D3A0732D
:10596000216920468847257108E02580207170BD97
:105970001E29FCD3A073216920468847657170BD3C
:105980000320D8E7A1780029F9D16179491C617118
:10599000EBE70000FCF7B2FBFEF70CFDFEF770FA38
:1059A000FEF748FAFEF728FBFEF7B4FAFEF7FCF91B
:1059B000FEF7D0FA00F052F90D4800F0FDF8FEF7BE
:1059C00093FCFFF73DFF00F051F8782209490A489F
:1059D000FBF79AFC00210948FDF7B0F804210748BD
:1059E000FDF7ACF80548322102685163FCE700007E
:1059F000E8020020540400208800002094010020C8
:105A0000F0B50B30154D20F007010024144A0FE0CB
:105A100003688B420BD38B4205D95E1A4318476843
:105A2000C3E9006700E04368136002C004E0021DA0
:105A300010680028ECD12046002802D1286808B15F
:105A40000020F0BD064A07481060074A121A22F0EB
:105A50000702C0E9002401202860D7E78400002065
:105A600080000020E40E0020E010002070B500232C
:105A70001A4601211CA0FFF789FE064600231A469C
:105A800001211CA0FFF782FE054600231A460221D1
:105A90001AA0FFF77BFE04461B48A0601B480023AA
:105AA000E0601A4603211AA0FFF770FE03461B4868
:105AB00098600020D8601A4818611A485861294631
:105AC00006F10800FFF7F4FC214605F10800044642
:105AD000FFF7EEFC19462046FFF7EAFC3046BDE82A
